{
  "_format": "hh-sol-artifact-1",
  "contractName": "AcademicNFT",
  "sourceName": "contracts/AcademicNFT.sol",
  "abi": [
    {
      "anonymous": false,
      "inputs": [
        {
          "indexed": false,
          "internalType": "uint256",
          "name": "id",
          "type": "uint256"
        },
        {
          "indexed": false,
          "internalType": "string",
          "name": "title",
          "type": "string"
        },
        {
          "indexed": false,
          "internalType": "string",
          "name": "uri",
          "type": "string"
        },
        {
          "indexed": false,
          "internalType": "string",
          "name": "academicYear",
          "type": "string"
        },
        {
          "indexed": false,
          "internalType": "string",
          "name": "department",
          "type": "string"
        },
        {
          "indexed": false,
          "internalType": "address",
          "name": "owner",
          "type": "address"
        },
        {
          "indexed": false,
          "internalType": "string",
          "name": "name",
          "type": "string"
        },
        {
          "indexed": false,
          "internalType": "string",
          "name": "msv",
          "type": "string"
        }
      ],
      "name": "NFTCreated",
      "type": "event"
    },
    {
      "inputs": [
        {
          "internalType": "string",
          "name": "_title",
          "type": "string"
        },
        {
          "internalType": "string",
          "name": "_uri",
          "type": "string"
        },
        {
          "internalType": "string",
          "name": "_academicYear",
          "type": "string"
        },
        {
          "internalType": "string",
          "name": "_department",
          "type": "string"
        },
        {
          "internalType": "string",
          "name": "_name",
          "type": "string"
        },
        {
          "internalType": "string",
          "name": "_msv",
          "type": "string"
        }
      ],
      "name": "createNFT",
      "outputs": [],
      "stateMutability": "nonpayable",
      "type": "function"
    },
    {
      "inputs": [],
      "name": "getAllListedNFTs",
      "outputs": [
        {
          "components": [
            {
              "internalType": "uint256",
              "name": "id",
              "type": "uint256"
            },
            {
              "internalType": "string",
              "name": "title",
              "type": "string"
            },
            {
              "internalType": "string",
              "name": "uri",
              "type": "string"
            },
            {
              "internalType": "string",
              "name": "academicYear",
              "type": "string"
            },
            {
              "internalType": "string",
              "name": "department",
              "type": "string"
            },
            {
              "internalType": "address",
              "name": "owner",
              "type": "address"
            },
            {
              "internalType": "string",
              "name": "name",
              "type": "string"
            },
            {
              "internalType": "string",
              "name": "msv",
              "type": "string"
            }
          ],
          "internalType": "struct AcademicNFT.NFT[]",
          "name": "",
          "type": "tuple[]"
        }
      ],
      "stateMutability": "view",
      "type": "function"
    },
    {
      "inputs": [
        {
          "internalType": "uint256",
          "name": "_id",
          "type": "uint256"
        }
      ],
      "name": "getNFTDetail",
      "outputs": [
        {
          "components": [
            {
              "internalType": "uint256",
              "name": "id",
              "type": "uint256"
            },
            {
              "internalType": "string",
              "name": "title",
              "type": "string"
            },
            {
              "internalType": "string",
              "name": "uri",
              "type": "string"
            },
            {
              "internalType": "string",
              "name": "academicYear",
              "type": "string"
            },
            {
              "internalType": "string",
              "name": "department",
              "type": "string"
            },
            {
              "internalType": "address",
              "name": "owner",
              "type": "address"
            },
            {
              "internalType": "string",
              "name": "name",
              "type": "string"
            },
            {
              "internalType": "string",
              "name": "msv",
              "type": "string"
            }
          ],
          "internalType": "struct AcademicNFT.NFT",
          "name": "",
          "type": "tuple"
        }
      ],
      "stateMutability": "view",
      "type": "function"
    },
    {
      "inputs": [
        {
          "internalType": "address",
          "name": "user",
          "type": "address"
        }
      ],
      "name": "getUserNFTs",
      "outputs": [
        {
          "components": [
            {
              "internalType": "uint256",
              "name": "id",
              "type": "uint256"
            },
            {
              "internalType": "string",
              "name": "title",
              "type": "string"
            },
            {
              "internalType": "string",
              "name": "uri",
              "type": "string"
            },
            {
              "internalType": "string",
              "name": "academicYear",
              "type": "string"
            },
            {
              "internalType": "string",
              "name": "department",
              "type": "string"
            },
            {
              "internalType": "address",
              "name": "owner",
              "type": "address"
            },
            {
              "internalType": "string",
              "name": "name",
              "type": "string"
            },
            {
              "internalType": "string",
              "name": "msv",
              "type": "string"
            }
          ],
          "internalType": "struct AcademicNFT.NFT[]",
          "name": "",
          "type": "tuple[]"
        }
      ],
      "stateMutability": "view",
      "type": "function"
    },
    {
      "inputs": [],
      "name": "nextId",
      "outputs": [
        {
          "internalType": "uint256",
          "name": "",
          "type": "uint256"
        }
      ],
      "stateMutability": "view",
      "type": "function"
    },
    {
      "inputs": [
        {
          "internalType": "uint256",
          "name": "",
          "type": "uint256"
        }
      ],
      "name": "nfts",
      "outputs": [
        {
          "internalType": "uint256",
          "name": "id",
          "type": "uint256"
        },
        {
          "internalType": "string",
          "name": "title",
          "type": "string"
        },
        {
          "internalType": "string",
          "name": "uri",
          "type": "string"
        },
        {
          "internalType": "string",
          "name": "academicYear",
          "type": "string"
        },
        {
          "internalType": "string",
          "name": "department",
          "type": "string"
        },
        {
          "internalType": "address",
          "name": "owner",
          "type": "address"
        },
        {
          "internalType": "string",
          "name": "name",
          "type": "string"
        },
        {
          "internalType": "string",
          "name": "msv",
          "type": "string"
        }
      ],
      "stateMutability": "view",
      "type": "function"
    },
    {
      "inputs": [
        {
          "internalType": "address",
          "name": "",
          "type": "address"
        },
        {
          "internalType": "uint256",
          "name": "",
          "type": "uint256"
        }
      ],
      "name": "userNFTs",
      "outputs": [
        {
          "internalType": "uint256",
          "name": "",
          "type": "uint256"
        }
      ],
      "stateMutability": "view",
      "type": "function"
    }
  ],
  "bytecode": "0x60806040526001600055348015601457600080fd5b50612543806100246000396000f3fe608060405234801561001057600080fd5b506004361061007d5760003560e01c806352de4ee51161005b57806352de4ee51461010757806361b8ce8c14610137578063c381850014610155578063e1abbb8a146101855761007d565b8063265aa62114610082578063291c73c3146100b95780634b58ffaa146100e9575b600080fd5b61009c60048036038101906100979190611752565b6101a1565b6040516100b098979695949392919061185f565b60405180910390f35b6100d360048036038101906100ce9190611933565b610539565b6040516100e09190611973565b60405180910390f35b6100f161056a565b6040516100fe9190611b8b565b60405180910390f35b610121600480360381019061011c9190611bad565b610a0d565b60405161012e9190611b8b565b60405180910390f35b61013f610f41565b60405161014c9190611973565b60405180910390f35b61016f600480360381019061016a9190611752565b610f47565b60405161017c9190611cad565b60405180910390f35b61019f600480360381019061019a9190611e04565b611391565b005b60016020528060005260406000206000915090508060000154908060010180546101ca90611f68565b80601f01602080910402602001604051908101604052809291908181526020018280546101f690611f68565b80156102435780601f1061021857610100808354040283529160200191610243565b820191906000526020600020905b81548152906001019060200180831161022657829003601f168201915b50505050509080600201805461025890611f68565b80601f016020809104026020016040519081016040528092919081815260200182805461028490611f68565b80156102d15780601f106102a6576101008083540402835291602001916102d1565b820191906000526020600020905b8154815290600101906020018083116102b457829003601f168201915b5050505050908060030180546102e690611f68565b80601f016020809104026020016040519081016040528092919081815260200182805461031290611f68565b801561035f5780601f106103345761010080835404028352916020019161035f565b820191906000526020600020905b81548152906001019060200180831161034257829003601f168201915b50505050509080600401805461037490611f68565b80601f01602080910402602001604051908101604052809291908181526020018280546103a090611f68565b80156103ed5780601f106103c2576101008083540402835291602001916103ed565b820191906000526020600020905b8154815290600101906020018083116103d057829003601f168201915b5050505050908060050160009054906101000a900473ffffffffffffffffffffffffffffffffffffffff169080600601805461042890611f68565b80601f016020809104026020016040519081016040528092919081815260200182805461045490611f68565b80156104a15780601f10610476576101008083540402835291602001916104a1565b820191906000526020600020905b81548152906001019060200180831161048457829003601f168201915b5050505050908060070180546104b690611f68565b80601f01602080910402602001604051908101604052809291908181526020018280546104e290611f68565b801561052f5780601f106105045761010080835404028352916020019161052f565b820191906000526020600020905b81548152906001019060200180831161051257829003601f168201915b5050505050905088565b6002602052816000526040600020818154811061055557600080fd5b90600052602060002001600091509150505481565b60606000600160005461057d9190611fc8565b67ffffffffffffffff81111561059657610595611cd9565b5b6040519080825280602002602001820160405280156105cf57816020015b6105bc6116ad565b8152602001906001900390816105b45790505b5090506000600190505b600054811015610a055760016000828152602001908152602001600020604051806101000160405290816000820154815260200160018201805461061c90611f68565b80601f016020809104026020016040519081016040528092919081815260200182805461064890611f68565b80156106955780601f1061066a57610100808354040283529160200191610695565b820191906000526020600020905b81548152906001019060200180831161067857829003601f168201915b505050505081526020016002820180546106ae90611f68565b80601f01602080910402602001604051908101604052809291908181526020018280546106da90611f68565b80156107275780601f106106fc57610100808354040283529160200191610727565b820191906000526020600020905b81548152906001019060200180831161070a57829003601f168201915b5050505050815260200160038201805461074090611f68565b80601f016020809104026020016040519081016040528092919081815260200182805461076c90611f68565b80156107b95780601f1061078e576101008083540402835291602001916107b9565b820191906000526020600020905b81548152906001019060200180831161079c57829003601f168201915b505050505081526020016004820180546107d290611f68565b80601f01602080910402602001604051908101604052809291908181526020018280546107fe90611f68565b801561084b5780601f106108205761010080835404028352916020019161084b565b820191906000526020600020905b81548152906001019060200180831161082e57829003601f168201915b505050505081526020016005820160009054906101000a900473ffffffffffffffffffffffffffffffffffffffff1673ffffffffffffffffffffffffffffffffffffffff1673ffffffffffffffffffffffffffffffffffffffff1681526020016006820180546108ba90611f68565b80601f01602080910402602001604051908101604052809291908181526020018280546108e690611f68565b80156109335780601f1061090857610100808354040283529160200191610933565b820191906000526020600020905b81548152906001019060200180831161091657829003601f168201915b5050505050815260200160078201805461094c90611f68565b80601f016020809104026020016040519081016040528092919081815260200182805461097890611f68565b80156109c55780601f1061099a576101008083540402835291602001916109c5565b820191906000526020600020905b8154815290600101906020018083116109a857829003601f168201915b505050505081525050826001836109dc9190611fc8565b815181106109ed576109ec611ffc565b5b602002602001018190525080806001019150506105d9565b508091505090565b60606000600260008473ffffffffffffffffffffffffffffffffffffffff1673ffffffffffffffffffffffffffffffffffffffff168152602001908152602001600020805480602002602001604051908101604052809291908181526020018280548015610a9a57602002820191906000526020600020905b815481526020019060010190808311610a86575b505050505090506000815167ffffffffffffffff811115610abe57610abd611cd9565b5b604051908082528060200260200182016040528015610af757816020015b610ae46116ad565b815260200190600190039081610adc5790505b50905060005b8251811015610f365760016000848381518110610b1d57610b1c611ffc565b5b602002602001015181526020019081526020016000206040518061010001604052908160008201548152602001600182018054610b5990611f68565b80601f0160208091040260200160405190810160405280929190818152602001828054610b8590611f68565b8015610bd25780601f10610ba757610100808354040283529160200191610bd2565b820191906000526020600020905b815481529060010190602001808311610bb557829003601f168201915b50505050508152602001600282018054610beb90611f68565b80601f0160208091040260200160405190810160405280929190818152602001828054610c1790611f68565b8015610c645780601f10610c3957610100808354040283529160200191610c64565b820191906000526020600020905b815481529060010190602001808311610c4757829003601f168201915b50505050508152602001600382018054610c7d90611f68565b80601f0160208091040260200160405190810160405280929190818152602001828054610ca990611f68565b8015610cf65780601f10610ccb57610100808354040283529160200191610cf6565b820191906000526020600020905b815481529060010190602001808311610cd957829003601f168201915b50505050508152602001600482018054610d0f90611f68565b80601f0160208091040260200160405190810160405280929190818152602001828054610d3b90611f68565b8015610d885780601f10610d5d57610100808354040283529160200191610d88565b820191906000526020600020905b815481529060010190602001808311610d6b57829003601f168201915b505050505081526020016005820160009054906101000a900473ffffffffffffffffffffffffffffffffffffffff1673ffffffffffffffffffffffffffffffffffffffff1673ffffffffffffffffffffffffffffffffffffffff168152602001600682018054610df790611f68565b80601f0160208091040260200160405190810160405280929190818152602001828054610e2390611f68565b8015610e705780601f10610e4557610100808354040283529160200191610e70565b820191906000526020600020905b815481529060010190602001808311610e5357829003601f168201915b50505050508152602001600782018054610e8990611f68565b80601f0160208091040260200160405190810160405280929190818152602001828054610eb590611f68565b8015610f025780601f10610ed757610100808354040283529160200191610f02565b820191906000526020600020905b815481529060010190602001808311610ee557829003601f168201915b505050505081525050828281518110610f1e57610f1d611ffc565b5b60200260200101819052508080600101915050610afd565b508092505050919050565b60005481565b610f4f6116ad565b600082118015610f60575060005482105b610f9f576040517f08c379a0000000000000000000000000000000000000000000000000000000008152600401610f9690612077565b60405180910390fd5b600160008381526020019081526020016000206040518061010001604052908160008201548152602001600182018054610fd890611f68565b80601f016020809104026020016040519081016040528092919081815260200182805461100490611f68565b80156110515780601f1061102657610100808354040283529160200191611051565b820191906000526020600020905b81548152906001019060200180831161103457829003601f168201915b5050505050815260200160028201805461106a90611f68565b80601f016020809104026020016040519081016040528092919081815260200182805461109690611f68565b80156110e35780601f106110b8576101008083540402835291602001916110e3565b820191906000526020600020905b8154815290600101906020018083116110c657829003601f168201915b505050505081526020016003820180546110fc90611f68565b80601f016020809104026020016040519081016040528092919081815260200182805461112890611f68565b80156111755780601f1061114a57610100808354040283529160200191611175565b820191906000526020600020905b81548152906001019060200180831161115857829003601f168201915b5050505050815260200160048201805461118e90611f68565b80601f01602080910402602001604051908101604052809291908181526020018280546111ba90611f68565b80156112075780601f106111dc57610100808354040283529160200191611207565b820191906000526020600020905b8154815290600101906020018083116111ea57829003601f168201915b505050505081526020016005820160009054906101000a900473ffffffffffffffffffffffffffffffffffffffff1673ffffffffffffffffffffffffffffffffffffffff1673ffffffffffffffffffffffffffffffffffffffff16815260200160068201805461127690611f68565b80601f01602080910402602001604051908101604052809291908181526020018280546112a290611f68565b80156112ef5780601f106112c4576101008083540402835291602001916112ef565b820191906000526020600020905b8154815290600101906020018083116112d257829003601f168201915b5050505050815260200160078201805461130890611f68565b80601f016020809104026020016040519081016040528092919081815260200182805461133490611f68565b80156113815780601f1061135657610100808354040283529160200191611381565b820191906000526020600020905b81548152906001019060200180831161136457829003601f168201915b5050505050815250509050919050565b60008651116113d5576040517f08c379a00000000000000000000000000000000000000000000000000000000081526004016113cc906120e3565b60405180910390fd5b6000855111611419576040517f08c379a00000000000000000000000000000000000000000000000000000000081526004016114109061214f565b60405180910390fd5b600084511161145d576040517f08c379a0000000000000000000000000000000000000000000000000000000008152600401611454906121bb565b60405180910390fd5b60008351116114a1576040517f08c379a000000000000000000000000000000000000000000000000000000000815260040161149890612227565b60405180910390fd5b6000805490506040518061010001604052808281526020018881526020018781526020018681526020018581526020013373ffffffffffffffffffffffffffffffffffffffff168152602001848152602001838152506001600083815260200190815260200160002060008201518160000155602082015181600101908161152991906123f3565b50604082015181600201908161153f91906123f3565b50606082015181600301908161155591906123f3565b50608082015181600401908161156b91906123f3565b5060a08201518160050160006101000a81548173ffffffffffffffffffffffffffffffffffffffff021916908373ffffffffffffffffffffffffffffffffffffffff16021790555060c08201518160060190816115c891906123f3565b5060e08201518160070190816115de91906123f3565b50905050600260003373ffffffffffffffffffffffffffffffffffffffff1673ffffffffffffffffffffffffffffffffffffffff1681526020019081526020016000208190806001815401808255809150506001900390600052602060002001600090919091909150557f41a3679d74ad6025d64fc9177f5ee4465e74bf2f131514b9a7b478d377be971c818888888833898960405161168598979695949392919061185f565b60405180910390a160008081548092919061169f906124c5565b919050555050505050505050565b6040518061010001604052806000815260200160608152602001606081526020016060815260200160608152602001600073ffffffffffffffffffffffffffffffffffffffff16815260200160608152602001606081525090565b6000604051905090565b600080fd5b600080fd5b6000819050919050565b61172f8161171c565b811461173a57600080fd5b50565b60008135905061174c81611726565b92915050565b60006020828403121561176857611767611712565b5b60006117768482850161173d565b91505092915050565b6117888161171c565b82525050565b600081519050919050565b600082825260208201905092915050565b60005b838110156117c85780820151818401526020810190506117ad565b60008484015250505050565b6000601f19601f8301169050919050565b60006117f08261178e565b6117fa8185611799565b935061180a8185602086016117aa565b611813816117d4565b840191505092915050565b600073ffffffffffffffffffffffffffffffffffffffff82169050919050565b60006118498261181e565b9050919050565b6118598161183e565b82525050565b600061010082019050611875600083018b61177f565b8181036020830152611887818a6117e5565b9050818103604083015261189b81896117e5565b905081810360608301526118af81886117e5565b905081810360808301526118c381876117e5565b90506118d260a0830186611850565b81810360c08301526118e481856117e5565b905081810360e08301526118f881846117e5565b90509998505050505050505050565b6119108161183e565b811461191b57600080fd5b50565b60008135905061192d81611907565b92915050565b6000806040838503121561194a57611949611712565b5b60006119588582860161191e565b92505060206119698582860161173d565b9150509250929050565b6000602082019050611988600083018461177f565b92915050565b600081519050919050565b600082825260208201905092915050565b6000819050602082019050919050565b6119c38161171c565b82525050565b600082825260208201905092915050565b60006119e58261178e565b6119ef81856119c9565b93506119ff8185602086016117aa565b611a08816117d4565b840191505092915050565b611a1c8161183e565b82525050565b600061010083016000830151611a3b60008601826119ba565b5060208301518482036020860152611a5382826119da565b91505060408301518482036040860152611a6d82826119da565b91505060608301518482036060860152611a8782826119da565b91505060808301518482036080860152611aa182826119da565b91505060a0830151611ab660a0860182611a13565b5060c083015184820360c0860152611ace82826119da565b91505060e083015184820360e0860152611ae882826119da565b9150508091505092915050565b6000611b018383611a22565b905092915050565b6000602082019050919050565b6000611b218261198e565b611b2b8185611999565b935083602082028501611b3d856119aa565b8060005b85811015611b795784840389528151611b5a8582611af5565b9450611b6583611b09565b925060208a01995050600181019050611b41565b50829750879550505050505092915050565b60006020820190508181036000830152611ba58184611b16565b905092915050565b600060208284031215611bc357611bc2611712565b5b6000611bd18482850161191e565b91505092915050565b600061010083016000830151611bf360008601826119ba565b5060208301518482036020860152611c0b82826119da565b91505060408301518482036040860152611c2582826119da565b91505060608301518482036060860152611c3f82826119da565b91505060808301518482036080860152611c5982826119da565b91505060a0830151611c6e60a0860182611a13565b5060c083015184820360c0860152611c8682826119da565b91505060e083015184820360e0860152611ca082826119da565b9150508091505092915050565b60006020820190508181036000830152611cc78184611bda565b905092915050565b600080fd5b600080fd5b7f4e487b7100000000000000000000000000000000000000000000000000000000600052604160045260246000fd5b611d11826117d4565b810181811067ffffffffffffffff82111715611d3057611d2f611cd9565b5b80604052505050565b6000611d43611708565b9050611d4f8282611d08565b919050565b600067ffffffffffffffff821115611d6f57611d6e611cd9565b5b611d78826117d4565b9050602081019050919050565b82818337600083830152505050565b6000611da7611da284611d54565b611d39565b905082815260208101848484011115611dc357611dc2611cd4565b5b611dce848285611d85565b509392505050565b600082601f830112611deb57611dea611ccf565b5b8135611dfb848260208601611d94565b91505092915050565b60008060008060008060c08789031215611e2157611e20611712565b5b600087013567ffffffffffffffff811115611e3f57611e3e611717565b5b611e4b89828a01611dd6565b965050602087013567ffffffffffffffff811115611e6c57611e6b611717565b5b611e7889828a01611dd6565b955050604087013567ffffffffffffffff811115611e9957611e98611717565b5b611ea589828a01611dd6565b945050606087013567ffffffffffffffff811115611ec657611ec5611717565b5b611ed289828a01611dd6565b935050608087013567ffffffffffffffff811115611ef357611ef2611717565b5b611eff89828a01611dd6565b92505060a087013567ffffffffffffffff811115611f2057611f1f611717565b5b611f2c89828a01611dd6565b9150509295509295509295565b7f4e487b7100000000000000000000000000000000000000000000000000000000600052602260045260246000fd5b60006002820490506001821680611f8057607f821691505b602082108103611f9357611f92611f39565b5b50919050565b7f4e487b7100000000000000000000000000000000000000000000000000000000600052601160045260246000fd5b6000611fd38261171c565b9150611fde8361171c565b9250828203905081811115611ff657611ff5611f99565b5b92915050565b7f4e487b7100000000000000000000000000000000000000000000000000000000600052603260045260246000fd5b7f4e465420646f6573206e6f742065786973740000000000000000000000000000600082015250565b6000612061601283611799565b915061206c8261202b565b602082019050919050565b6000602082019050818103600083015261209081612054565b9050919050565b7f5469746c652063616e6e6f7420626520656d7074790000000000000000000000600082015250565b60006120cd601583611799565b91506120d882612097565b602082019050919050565b600060208201905081810360008301526120fc816120c0565b9050919050565b7f5552492063616e6e6f7420626520656d70747900000000000000000000000000600082015250565b6000612139601383611799565b915061214482612103565b602082019050919050565b600060208201905081810360008301526121688161212c565b9050919050565b7f41636164656d696320596561722063616e6e6f7420626520656d707479000000600082015250565b60006121a5601d83611799565b91506121b08261216f565b602082019050919050565b600060208201905081810360008301526121d481612198565b9050919050565b7f4465706172746d656e742063616e6e6f7420626520656d707479000000000000600082015250565b6000612211601a83611799565b915061221c826121db565b602082019050919050565b6000602082019050818103600083015261224081612204565b9050919050565b60008190508160005260206000209050919050565b60006020601f8301049050919050565b600082821b905092915050565b6000600883026122a97fffffffffffffffffffffffffffffffffffffffffffffffffffffffffffffffff8261226c565b6122b3868361226c565b95508019841693508086168417925050509392505050565b6000819050919050565b60006122f06122eb6122e68461171c565b6122cb565b61171c565b9050919050565b6000819050919050565b61230a836122d5565b61231e612316826122f7565b848454612279565b825550505050565b600090565b612333612326565b61233e818484612301565b505050565b5b818110156123625761235760008261232b565b600181019050612344565b5050565b601f8211156123a75761237881612247565b6123818461225c565b81016020851015612390578190505b6123a461239c8561225c565b830182612343565b50505b505050565b600082821c905092915050565b60006123ca600019846008026123ac565b1980831691505092915050565b60006123e383836123b9565b9150826002028217905092915050565b6123fc8261178e565b67ffffffffffffffff81111561241557612414611cd9565b5b61241f8254611f68565b61242a828285612366565b600060209050601f83116001811461245d576000841561244b578287015190505b61245585826123d7565b8655506124bd565b601f19841661246b86612247565b60005b828110156124935784890151825560018201915060208501945060208101905061246e565b868310156124b057848901516124ac601f8916826123b9565b8355505b6001600288020188555050505b505050505050565b60006124d08261171c565b91507fffffffffffffffffffffffffffffffffffffffffffffffffffffffffffffffff820361250257612501611f99565b5b60018201905091905056fea2646970667358221220648857a705085caac38aa27883f44511704b2ba4a701d09e4f88316a5618d4d864736f6c634300081b0033",
  "linkReferences": {},
  "deployedLinkReferences": {}
}